:020000040000FA
:020000000A28CC
:10000800FE00030EF2000A08F3000F280B28F60181
:10001800F701830141280B1C122813283A28831260
:100028000313861E1828192834287608031D1D284E
:100038001E28342877080319222824280130252867
:100048000030F0007008F700F601F60A4130F100C0
:10005800EE30F000F00B2E28F10B2E280000392886
:10006800861A372838283928F6010B1073088A00B1
:10007800720E8300FE0E7E0E09006720F5017708D8
:10008800031D472848284B28F51475155328FD30BB
:10009800F4007408F505FB30F4007408F5058312C4
:1000A8000313061E582859285B2875146328061A56
:1000B8005E285F286328FE30F4007408F50575088B
:1000C800850043280A280730831203139F008501FF
:1000D800831603138501831203138601FF308316E9
:1000E8000313860081170B108B1501178B170B173D
:0200F8000800FE
:02400E00183F59
:00000001FF
